:020000040000FA
:10000000100620204D0100005101000053010000A6
:1000100000000000000000000000000000000000E0
:10002000000000000000000000000000550100007A
:10003000000000000000000057010000F51E000055
:100040005B0100005B0100005B0100005B01000040
:100050005B0100005B0100005B0100005B01000030
:10006000000000005B0100005B01000000000000D8
:10007000000000005B0100005B0100005B0100006C
:10008000051F00005B0100005B0100005B01000038
:100090005B0100005B0100000000000000000000A8
:1000A0005B0100005B010000000000000000000098
:1000B0005B010000000000005B0100005B0100002C
:1000C00000F002F800F032F80CA030C8083824180C
:1000D0002D18671EA246AB4654465D46AC4201D180
:1000E00000F024F87E460F3EB6460FCC0126334280
:1000F00000D0FB1A3343A246AB461847E430000059
:10010000F430000000000000002300240025002639
:10011000103A01D378C1FBD8520700D330C100D5C3
:100120000B6070471FB51FBD10B510BD00F0A0F9E2
:100130001146FFF7F7FF01F009FF00F0B8F903B42B
:10014000FFF7F2FF03BC00F0BBF9000006480047D0
:10015000FEE7FEE7FEE7FEE7FEE7FEE703480449A9
:10016000024A044B70470000C10000001005202027
:10017000100620201005202001E004C0091F0429DA
:10018000FBD28B0701D50280801CC90700D002700A
:10019000704700290BD0C30702D00270401C491ED3
:1001A000022904D3830702D50280801C891EE3E75D
:1001B0000022EEE70022DFE782078B079A423FD159
:1001C00070B5920F0AD0032402780B78401C491CAA
:1001D000002A33D09A4231D12042F5D1214EF40188
:1001E00004C808C9951B9543254018D19A420FD1E0
:1001F00004C808C9951B9543254010D19A4207D1E0
:1002000004C808C9951B9543254008D19A42E7D0F8
:1002100012BA1BBA01209A4200D2404270BD12BAF3
:100220001BBA2DBA18241000E0401900E140401A12
:1002300005D12E00E64002D1083CF4D1D01A70BDA1
:1002400002780B78401C491C002A09D09A4207D139
:1002500002780B78401C491C002A01D09A42EFD04A
:10026000D01A704701010101002203098B4273D3A8
:10027000030A8B4258D3030B8B423CD3030C8B42B3
:1002800021D312E003460B437FD4002243088B4264
:1002900074D303098B425FD3030A8B4244D3030B0D
:1002A0008B4228D3030C8B420DD30902FF2212BAD2
:1002B000030C8B4202D31212090265D0030B8B424E
:1002C00019D300E0090AC30B8B4201D3CB03C01A38
:1002D0005241830B8B4201D38B03C01A5241430B13
:1002E0008B4201D34B03C01A5241030B8B4201D303
:1002F0000B03C01A5241C30A8B4201D3CB02C01A6E
:100300005241830A8B4201D38B02C01A5241430AE5
:100310008B4201D34B02C01A5241030A8B4201D3D4
:100320000B02C01A5241CDD2C3098B4201D3CB017B
:10033000C01A524183098B4201D38B01C01A52412A
:1003400043098B4201D34B01C01A524103098B422E
:1003500001D30B01C01A5241C3088B4201D3CB0019
:10036000C01A524183088B4201D38B00C01A5241FC
:1003700043088B4201D34B00C01A5241411A00D2AC
:1003800001465241104670475DE0CA0F00D0494215
:10039000031000D3404253409C46002203098B4285
:1003A0002DD3030A8B4212D38901FC2212BA030A0D
:1003B0008B420CD3890192118B4208D3890192118F
:1003C0008B4204D389013AD0921100E08909C30914
:1003D0008B4201D3CB01C01A524183098B4201D316
:1003E0008B01C01A524143098B4201D34B01C01A01
:1003F000524103098B4201D30B01C01A5241C30879
:100400008B4201D3CB00C01A524183088B4201D3E7
:100410008B00C01A5241D9D243088B4201D34B0002
:10042000C01A5241411A00D2014652411046634659
:100430005B1001D34042002B00D549427047634610
:100440005B1000D3404201B50449002802DC491C7E
:10045000084000E00846C046C04602BDFFFFFF7FDF
:100460007047704770470000004870470000202028
:100470007546FFF7F9FFAE46050069465346C008CA
:10048000C000854618B020B5FFF768FE60BCB646D0
:1004900000260027C0C5C0C5C0C5C0C5C0C5C0C5F1
:1004A000C0C5C0C5403D490849008D46704710B5DC
:1004B0000446C046C0462046FFF741FE10BD00007E
:1004C00001491820ABBEFEE7260002007047811EDE
:1004D000091F00BFFCD27047F0B582B0002A31D0AE
:1004E00091235B01C3180320801A00900220C043AF
:1004F000801A019056420F2007020020DC693C421E
:1005000021D00C5C1C60019C2418241D1ED0DC69C9
:100510003C421DD00C1865781D603518AD1C19D0F3
:10052000DD693D4218D0A5781D60009D2D1815D0BD
:10053000DD693D4214D0E4781C60001D3418DDD123
:10054000104600E0002080B202B0F0BD1046FAE78D
:10055000401CF8E71046F6E7801CF4E71046F2E787
:10056000C01CF0E770B50A780C231A40012424035C
:1005700005196E689E43B2186A60497807221140D7
:10058000035993435918015170BD0000F0B57D4ADD
:1005900082183B4BC31808794E793A4D7B4C002E9C
:1005A00023D0202804D00526F601002803D003E03C
:1005B000354E002800D18826576F2F4037435767A4
:1005C000976F2F4037439767566B26405663966B5D
:1005D000264096630026566596658F26F6435F682B
:1005E00037405F609F6837409F608E790968202898
:1005F0000BD0002819D1491E5160D76E2F40882199
:100600000F43D7661746703719E0491E5160D16E07
:1006100029401D4F3943D166116F29403943116775
:1006200001214907194D174609E049085160D76E65
:100630002F400521C9010F43D766174670373C6824
:100640002C400C433C60D16A504C2140D162116B6C
:10065000214011630021D16411658F21C943D46FFA
:100660000C40D4671C680C401C600643BD20304021
:100670001168074B0B40C018801C1060F0BDC046CD
:100680008418000024493E0001040000FFFFFFCF52
:100690004000FFCFB0B53B4A80184A6842600A78F4
:1006A000222A57D8930001A4E3589F464B07000025
:1006B000550700004B0700005507000055070000D4
:1006C00055070000550700005507000055070000BA
:1006D00055070000550700005507000055070000AA
:1006E00055070000550700005507000039070000B6
:1006F00055070000390700005507000055070000A6
:100700005507000055070000550700005507000079
:100710005507000055070000550700005507000069
:100720005507000055070000550700003907000075
:10073000550700003907000003231B0704689C438A
:1007400001235B07E318036004E003231B0704682D
:100750009C4304600B69C360CB680B4C1C40C36AAC
:100760000A4D1D402B19C3620368094C1C400460EC
:10077000097A11433F2211400368934359180160DD
:10078000B0BDC04604180000777702008888FDFFDE
:100790007F00FFFF10B507239B04194092008018CB
:1007A000024A84589C436118815010BD30180000E3
:1007B00010B5029CA400001911431943014A81504D
:1007C00010BDC0465018000092008018014A8150A8
:1007D0007047C0461018000010B50122120383189C
:1007E0000C789C604B7883508978014A815010BD09
:1007F0000C1100002E49087800220A707047C0468C
:1008000010B528480168C90001D4012103E000683F
:10081000400C0221814324480278032A0ED8C046A6
:100820007A44127952009744010C1828002926D0E6
:10083000012101701D480021016010BD00210170DF
:100840001DE000291CD019490A68521C0A60096879
:10085000142914D30221017010BD144A1368002911
:1008600013D0591C11601168C9087D2907D310499C
:1008700002220A700321017010BD002900D010BDB2
:10088000002101700948016010BD9B0800217D2BEB
:1008900001D30B4600E00123054C23700170116069
:1008A00010BDC04680130A40010520200405202009
:1008B00000052020F0B581B00124A005304F38603C
:1008C000E00538602D4D0026284631463246FFF7B8
:1008D0007BFF60063860A006386028463146224615
:1008E000FFF772FF024801682143016001B0F0BDCB
:1008F00004180940F0B581B004467D20C000844250
:1009000000DB04461C48844200DC044601229105B9
:10091000D30557069206194E194D002C0BDD2960A0
:100920002B611546002230462146FFF74DFF144843
:100930000760056118E000920BD429602B60002449
:10094000304621462246FFF73FFF2F60009828607F
:100950000AE02B6029616442002230462146FFF7FD
:1009600033FF009828602F61012230462146FFF7AF
:100970002BFF01B0F0BDC04618FCFFFF000009408E
:1009800090320A4080B5012081020248FFF712FC34
:1009900080BDC04660002020F0B587B006A9AE201B
:1009A0004870002000900870E9480222FFF794FD8B
:1009B000E84F394608390868E74A10407830059111
:1009C0000860391F0868E54A1040E54A801804911C
:1009D00008603868400612D5386840060FD5386878
:1009E00040060CD538684006F3D408E03868800625
:1009F00008D43868800605D43868800602D4386880
:100A00008006F3D506A9D520487000980870022208
:100A1000CF48FFF761FD05990868CF4A104078225A
:100A200003921043086004990868CC4A1040CC4AED
:100A3000104308603868400612D5386840060FD564
:100A4000386840060CD538684006F3D408E03868AA
:100A5000800608D43868800605D43868800602D439
:100A600038688006F3D506A9802048700098087081
:100A70000222B748FFF730FD05990868B64A1040D2
:100A8000039A1043086004990868B44A1040B44AB5
:100A9000104308603868400612D5386840060FD504
:100AA000386840060CD538684006F3D408E038684A
:100AB000800608D43868800605D43868800602D4D9
:100AC00038688006F3D506A9A820487000980870F9
:100AD00002229F48FFF700FD059908689E4A1040D2
:100AE000039A10430860049908689C4A10409C4A85
:100AF000104308603868400612D5386840060FD5A4
:100B0000386840060CD538684006F3D408E03868E9
:100B1000800608D43868800605D43868800602D478
:100B200038688006F3D506A93F2048700098087001
:100B300002228748FFF7D0FC05990868864A1040D2
:100B4000039A1043086004990868844A1040844A54
:100B5000104308603868400612D5386840060FD543
:100B6000386840060CD538684006F3D408E0386889
:100B7000800608D43868800605D43868800602D418
:100B800038688006F3D506A9D3204870009808700D
:100B900002226F48FFF7A0FC059908686E4A1040D2
:100BA000039A10430860049908686C4A10406C4A24
:100BB000104308603868400612D5386840060FD5E3
:100BC000386840060CD538684006F3D408E0386829
:100BD000800608D43868800605D43868800602D4B8
:100BE00038688006F3D506A900984870087002227C
:100BF0005748FFF771FC05990868574A1040039A57
:100C00001043086004990868544A1040544A10433D
:100C100008603868400612D5386840060FD5386835
:100C200040060CD538684006F3D408E038688006E2
:100C300008D43868800605D43868800602D438683D
:100C40008006F3D506A940200290487000980870ED
:100C500002223F48FFF740FC059908683E4A1040D1
:100C6000039A10430860049908683C4A10403C4AC3
:100C7000104308603868400612D5386840060FD522
:100C8000386840060CD538684006F3D408E0386868
:100C9000800608D43868800605D43868800602D4F7
:100CA00038688006F3D506A9A1204870009808701E
:100CB00002222748FFF710FC05990868264A1040D1
:100CC000039A1043086004990868244A1040244A93
:100CD000104308603868400612D5386840060FD5C2
:100CE000386840060CD538684006F3D408E0386808
:100CF000800608D43868800605D43868800602D497
:100D000038688006F3D506A9C82048700098087096
:100D100002220F48FFF7E0FB059908680E4A1040D1
:100D2000039A10430860049908680C4A10400C4A62
:100D300010430860386840061DD5386840061AD54B
:100D40003868400617D538684006F3D413E0C0462B
:100D500000000F4018120F4000F8FFFFF8FF00F0EE
:100D6000070002003868800608D43868800605D479
:100D70003868800602D438688006F3D506A9DA20E0
:100D80004870009808700222E648FFF7A5FB059915
:100D90000868E54A1040039A1043086004990868FF
:100DA000E24A1040E24A104308603868400612D513
:100DB000386840060FD5386840060CD538684006BC
:100DC000F3D408E03868800608D43868800605D473
:100DD0003868800602D438688006F3D506A9122048
:100DE0004870009808700222CE48FFF775FB0599FD
:100DF0000868CD4A1040039A1043086004990868B7
:100E0000CA4A1040CA4A104308603868400612D5E2
:100E1000386840060FD5386840060CD5386840065B
:100E2000F3D408E03868800608D43868800605D412
:100E30003868800602D438688006F3D506A9812078
:100E40004870009808700222B648FFF745FB0599E4
:100E50000868B54A1040039A10430860049908686E
:100E6000B24A1040B24A104308603868400612D5B2
:100E7000386840060FD5386840060CD538684006FB
:100E8000F3D408E03868800608D43868800605D4B2
:100E90003868800602D438688006F3D506A9CF20CA
:100EA00048700098087002229E48FFF715FB0599CC
:100EB00008689D4A1040039A104308600499086826
:100EC0009A4A10409A4A104308603868400612D582
:100ED000386840060FD5386840060CD5386840069B
:100EE000F3D408E03868800608D43868800605D452
:100EF0003868800602D438688006F3D506A9D92060
:100F000048700098087002228648FFF7E5FA0599B4
:100F10000868854A1040039A1043086004990868DD
:100F2000FC4A1040FC4A104308603868400612D55D
:100F3000386840060FD5386840060CD5386840063A
:100F4000F3D408E03868800608D43868800605D4F1
:100F50003868800602D438688006F3D506A9F120E7
:100F60004870009808700222E848FFF7B5FA059922
:100F70000868E74A1040039A10430860049908681B
:100F8000E44A1040E44A104308603868400612D52D
:100F9000386840060FD5386840060CD538684006DA
:100FA000F3D408E03868800608D43868800605D491
:100FB0003868800602D438688006F3D506A9DB209D
:100FC0004870009808700222D048FFF785FA05990A
:100FD0000868CF4A1040039A1043086004990868D3
:100FE000CC4A1040CC4A104308603868400612D5FD
:100FF000386840060FD5386840060CD5386840067A
:10100000F3D408E03868800608D43868800605D430
:101010003868800602D438688006F3D506A93020E7
:101020004870009808700222B848FFF755FA0599F1
:101030000868B74A1040039A10430860049908688A
:10104000B44A1040B44A104308603868400612D5CC
:10105000386840060FD5386840060CD53868400619
:10106000F3D408E03868800608D43868800605D4D0
:101070003868800602D438688006F3D506A9A42013
:101080004870009808700222F148FFF725FA059988
:101090000868F14A1040039A1043086004990868F0
:1010A000EE4A1040EE4A104308603868400612D5F8
:1010B000386840060FD5386840060CD538684006B9
:1010C000F3D408E03868800608D43868800605D470
:1010D0003868800602D438688006F3D506A9A620B1
:1010E0004870009808700222D948FFF7F5F9059971
:1010F0000868D94A1040039A1043086004990868A8
:10110000D64A1040D64A10430860386840061AD5BF
:101110003868400617D53868400614D53868400648
:10112000F3D410E000000F4000F8FFFFF8FF00F0DC
:10113000070002003868800608D43868800605D4A5
:101140003868800602D438688006F3D506A98D2059
:101150004870009808700222BD48FFF7BDF9059954
:101160000868BD4A1040039A104308600499086853
:10117000BA4A1040BA4A104308603868400612D58F
:10118000386840060FD5386840060CD538684006E8
:10119000F3D408E03868800608D43868800605D49F
:1011A0003868800602D438688006F3D506A9142072
:1011B0004870009808700222A548FFF78DF905993C
:1011C0000868A54A1040039A10430860049908680B
:1011D000A24A1040A24A104308603868400612D55F
:1011E000386840060FD5386840060CD53868400688
:1011F000F3D408E03868800608D43868800605D43F
:101200003868800602D438688006F3D506A9AF2076
:1012100048700098087002228D48FFF75DF9059923
:1012200008688D4A1040039A1043086004990868C2
:101230008A4A10408A4A104308603868400612D52E
:10124000386840060FD5386840060CD53868400627
:10125000F3D408E03868800608D43868800605D4DE
:101260003868800602D438688006F3D57D20800077
:1012700000F056FE012081022848FEF79BFF009DEA
:1012800003E0019D6D1C082D3ED0E8B2009C214674
:1012900000F046F80195E80120490E1803E0641CAF
:1012A000AD46802CEDD06D4606A902980870305DE1
:1012B000487002226648FFF70FF905990868664AE8
:1012C0001040039A1043086004990868634A10406C
:1012D000634A104308603868400608D538684006FD
:1012E00005D53868400602D538684006F3D438681A
:1012F0008006D4D438688006D1D438688006CED42D
:1013000038688006F3D5CAE707B0F0BD00000F408B
:1013100000F8FFFFF8FF00F0070002006000202047
:10132000F0B585B00C4602A9002201920A70B022E5
:1013300002434A7046480222FFF7CEF8454E354632
:10134000083D28684449084078302860371F3868CD
:10135000424908404249401838603068400612D57A
:10136000306840060FD5306840060CD5306840061E
:10137000F3D408E03068800608D43068800605D4CD
:101380003068800602D430688006F3D503A901983E
:101390000870009420091030487002222C48FFF792
:1013A0009BF828682C490840782420432860386836
:1013B0002A4908402A49084338603068400612D557
:1013C000306840060FD5306840060CD530684006BE
:1013D000F3D408E03068800608D43068800605D46D
:1013E0003068800602D430688006F3D50F20009A5A
:1013F000024004A94A700198087002221448FFF7BD
:101400006BF828681449084020432860386813495D
:1014100008401349084338603068400612D53068E8
:1014200040060FD5306840060CD530684006F3D42E
:1014300008E03068800608D43068800605D430683B
:10144000800602D430688006F3D505B0F0BDC046F2
:1014500000000F4018120F4000F8FFFFF8FF00F0E7
:1014600007000200F0B590B0079208910D900C9320
:10147000002B32D00C98089BC0180E9007980D993D
:1014800042180F9306E00F98401C0F9000B20E997F
:10149000814222DD07980028F5D007200F9B1840D5
:1014A00001218140CD431EB2700F181800B2C71041
:1014B0000D98014603E0401C01B28A42E3DD83B28D
:1014C0007F2BF8D8002EF6D43F2EF4DCFB01A04C85
:1014D000E3185C5C2C405C54EDE7089C600F20181E
:1014E000072102468A43A11A002C00D50831159A1B
:1014F00003920AB208239A1A0B9289B20A91944A6B
:101500000D9951180091FC21079A1140099103216E
:1015100011400591C010E113401802900C98401E34
:10152000410F4018C0100490501E019000250895EE
:1015300006E06D1CE9B204980891884200DA04E1E3
:1015400007980028F5D0029908980E18771C019882
:1015500003280E96069574D2002205980028069D51
:10156000E7D007980899414308910D9810187F28F3
:101570001BD8072E0BD808995118039B595C0A9B5E
:101580009940F301724CE3181C5C0C431C54072F68
:101590000BD808995118039B595C0B9BD940FB0150
:1015A0006B4CE3181C5C0C431C5405980128C0D0FC
:1015B000511C0D9808187F281ED8072E0ED8089B9E
:1015C000CB18039CE35C0A9CA340F4012E46604DBB
:1015D0002C19255C1D43255435460E9E072F0BD82C
:1015E000089BC918039B595C0B9BD940FB01584CC5
:1015F000E3181C5C0C431C540598022899D0911CDC
:101600000D9808187F2894D8072E0BD8089A8A18A6
:10161000039B9A5C0A9B9A40F3014D4CE3181C5CB7
:1016200014431C54072F84D8089A8918039A515CD4
:101630000B9AD140FA01464B9A18135C0B43135492
:1016400077E7E8B20A1807994843039908180F90FA
:10165000D00100990D1800220C9704E0121D099882
:10166000904200D179E70D9880187F2817D8072E6F
:1016700008D8AF5C0F998E5C0A998E403E430C9F50
:10168000AE540E9E072F0AD80F998E5C0B9BDE403E
:10169000AF188023FC5C34430E9EFC540C9F431C0B
:1016A0007F2B19D8072E09D80F998B185B780A99C8
:1016B0008B40AC1866781E4366700E9E072F0BD8C1
:1016C000AB1881241E5D0F998F187F780B99CF403E
:1016D00037430E9E1F550C9F831C7F2B19D8072E56
:1016E00009D80F998B189B780A998B40AC18A6786B
:1016F0001E43A6700E9E072F0BD8AB1882241E5DCA
:101700000F998F18BF780B99CF4037430E9E1F5506
:101710000C9FC01C7F28A1D8072E08D80F988018CE
:10172000C0780A998840AB18DC780443DC70072F36
:1017300094D8A8188323C45C0F998E18F6780B9957
:10174000CE402643C6540E9E88E710B0F0BDC0467A
:1017500060002020F0B583B002910746FFF712F930
:10176000002625A2082430463146234600F05AF9C7
:1017700000940A227A4338200323314600F054F8BB
:1017800050201FA23146234600F04CF910251DA21F
:1017900030462946234600F045F9009430200223C4
:1017A000019029463A4600F03FF8402017A229460A
:1017B000234600F037F900940298474364227A43A5
:1017C00058200423294600F095F8202510A2304621
:1017D0002946234600F026F90298002801DC10A2D1
:1017E00000E00DA201982946234600F01BF900F005
:1017F000A3F903B0F0BDC046D5BCBFD5B1C83A000F
:1018000025000000D7AACBD93A000000B5B50000EA
:10181000B7BDCFF23A000000D5FDD7AA0000000006
:10182000B7B4D7AA00000000F0B589B0039105A9AC
:101830000DC1002B5BD00E990798451E42420492C1
:10184000801E02900027764C089111E0C0B206225B
:101850005043B6494018C038009030B2082303996D
:10186000FFF700FE08996D1E7F1C079887423ED047
:1018700008467843FA4304998A4201D101211CE0C9
:101880000321079BD2180A40029BDB1B032B01D2CA
:10189000012105E02B468B43012161431B1FFCD135
:1018A000002A0AD0012A01D10A2205E0022A02D028
:1018B0007D22D20000E064225143059A86180698E2
:1018C00000F086FB0A21FEF7CFFC30200843089980
:1018D0000629BBD00829C6D1C0B2000194494018DE
:1018E00094494018009030B208221023B7E709B09D
:1018F000F0BDC046F0B589B00793039105900E9BEB
:101900000692002A089309D4062B11D0082B27D160
:101910008748B0300090082210230EE0062B12D02A
:10192000082B1AD18248D0300090082210230FE0F3
:101930007E48423000900622082305980399FFF75D
:1019400091FD089B0CE079484E3000900622082358
:1019500005980399FFF786FD089B0698404206907C
:10196000079800285AD00798471E41420491801ECC
:10197000029000252A4C10E0C0B2062250436B4969
:101980004018C038009030B208230399FFF76AFD71
:10199000089B7F1E0798854240D02946EA436D1C6C
:1019A00018466843049B9A4201D101211CE003269A
:1019B000079BD2183240029B591A032901D20121F8
:1019C00005E03B46B343012161431B1FFCD1002AC4
:1019D0000AD0012A01D10A2205E0022A02D07D2282
:1019E000D20000E064225143059A8618069800F060
:1019F000EFFA0A21FEF738FC30200843089B062B3B
:101A0000BAD0082BC5D1C0B2000149494018494994
:101A10004018009030B208221023B6E709B0F0BD9C
:101A200010270000F0B589B003910490059210785A
:101A3000002877D01D4600273B4E0697029312E000
:101A400006225043394BC018C038009008B2082312
:101A50000399FFF707FD7F1906972746B8B2059946
:101A6000085C00285ED007A908707C1C41B20029E0
:101A700013D407A900224A700499069F7918062DED
:101A8000DED0082DE7D10001294A8018294A8018A4
:101A9000009008B208221023DAE7A0B20599085C8A
:101AA00000283FD007A900248C70487030780028A7
:101AB00013D007A93046FEF77FFB00280DD0002584
:101AC0006D1CACB223206043315C002905D0301876
:101AD00007A9FEF771FB0028F2D1BF1C029D062D5D
:101AE00011D0082DBAD1232060433018C01C0090BB
:101AF0000498069C201800B2102203991346FFF7A1
:101B0000B1FC10340CE00948BA3000900498069CEF
:101B1000201800B2062208230399FFF7A3FCA41D96
:101B200006949BE709B0F0BDC621000084270000A1
:101B3000BE29000000FEFFFFF0B583B00020244E58
:101B40000090054603E0019D6D1C082D3ED0E8B2D3
:101B5000009C2146FFF7E4FB0195E8011D490D18A3
:101B600003E0641CBD46802CEDD06F4602A94020E6
:101B70000870285D487002225248FEF7ADFC3046DE
:101B800008380168144A114078310160301F01683B
:101B9000124A1140124A891801603068400608D57F
:101BA0003068400605D53068400602D530684006EA
:101BB000F3D430688006D4D430688006D1D430683D
:101BC0008006CED430688006F3D5CAE703B0F0BDF6
:101BD00018120F406000202000F8FFFFF8FF00F00F
:101BE0000700020070B51F4A852494640121CB06CA
:101BF0001D4803601D4BDC67CD03056015461C3D89
:101C00002C600C0404601A4CA51C1D601E681E602C
:101C10005D605D685D604D061E682E431E605E68F7
:101C20002E435E609C609D689D6014601368136025
:101C300081239362D362136453640E4A13681024A1
:101C40001C43146089040C4A136A0B431362136823
:101C50000B431360014630391B2292050A60026073
:101C600070BDC046A0804240D0320A40048042404D
:101C700081000C00A0130A4028100A4080B51148CA
:101C80001149FEF76FFC03204102104802680A4325
:101C9000026001210A0203681343036000224261CB
:101CA00007224262836B934383631202836B9343E5
:101CB0008363826A042313438362826A0A438262D3
:101CC00080BDC04600000F40AE31000000120F4042
:101CD00070B582B0144C15492046FEF77DFD1449BD
:101CE0002046FEF753FC13480168354A0A40492153
:101CF000C901511801600125009500262046314692
:101D000032463346FEF754FD204631462A46FEF75A
:101D100041FD204631462A46FEF756FD06488560BD
:101D20000221016002B070BD00808640B031000029
:101D3000B4310000049886400091864070B582B0AE
:101D40001B4C1C492046FEF747FD1B492046FEF769
:101D50001DFC1A4801681A4A0A40026000250095D5
:101D6000204629462A462B46FEF722FD20462946D4
:101D70002A46FEF70FFD204629462A46FEF724FD97
:101D800001260096204629462A462B46FEF710FDDE
:101D9000204629463246FEF7FDFC204629463246BB
:101DA000FEF712FD074886600321016002B070BD96
:101DB00000000940BC310000C03100000418094097
:101DC0007F00FFFF001109400D4800210160032042
:101DD000C1430C48021F13680B4013604168012285
:101DE00091434160110242688A4342600168302297
:101DF0009143016001680F22914301607047C04622
:101E000008030B4004010B40084809494160FF21C9
:101E10000906084A13688B43032189075918116082
:101E200000218160072101607047C04610E000E09A
:101E3000FF7C000020ED00E010B5084C084920466A
:101E4000FEF7CAFC07492046FEF724FC0648016855
:101E50000122114301600548026010BD00400840A6
:101E6000C8310000CC31000028500840085108401B
:101E700080B500F015F8FFF7B5FEFFF7A5FFFFF7F7
:101E800027FFFFF75BFFFFF7D7FFFFF7F7FEFFF72F
:101E9000BBFF9C20014900220A5480BD6004202021
:101EA00070B50C480C4941600C4A51600C4B5960AC
:101EB0000C4C61600C4D69600C4E71600C49016006
:101EC000116019602160296031601020FEF7FFFA6F
:101ED00070BDC04600080A40030000B100280A4057
:101EE00000888640000809400048084000080F406C
:101EF0000100002680B514480168491C0160FEF706
:101F00007FFC80BD04480068C0B2012802D10348AC
:101F1000012101707047C046205008400C05202068
:101F200009490A680B689B1A83420BD20B689B1AFB
:101F3000834207D20B689B1A834203D20B689B1A19
:101F40008342EFD37047C0460805202082B0FFF7D8
:101F50008FFFFEF721FDFEF7ADFCFEF713FD1B48DA
:101F6000009020200024402221461346FFF77AFAF1
:101F7000FFF7E2FD7D200001FFF7D2FF012520469B
:101F80002946FFF7E7FB0DE0641C21466943642006
:101F90004843FEF7AFFC20462946FFF7DBFB0A204B
:101FA000FFF7BEFFFEF726FC022805D00128F6D178
:101FB000092CE9DD0024E8E7214669436320C0439A
:101FC0004843FEF797FC6D42E5E7C046AE2F0000A0
:101FD00043088B421AD3002203098B4279D3030AA8
:101FE0008B425ED3030B8B4242D3030C8B4227D32D
:101FF0000902FF2212BA030C8B4202D31212090209
:1020000003D0030B8B4233D31AE0D3E0411A804153
:10201000401C704703460B4371D443088B42F5D3F1
:10202000002203098B4254D3030A8B4239D3030B9A
:102030008B421DD3030C8B4202D394466EE0090AF7
:10204000C30B8B4201D3CB03C01A5241830B8B428B
:1020500001D38B03C01A5241430B8B4201D34B0374
:10206000C01A5241030B8B4201D30B03C01A5241D9
:10207000C30A8B4201D3CB02C01A5241830A8B425E
:1020800001D38B02C01A5241430A8B4201D34B0247
:10209000C01A5241030A8B4201D30B02C01A5241AB
:1020A000CDD2C3098B4201D3CB01C01A524183095F
:1020B0008B4201D38B01C01A524143098B4201D399
:1020C0004B01C01A524103098B4201D30B01C01AC4
:1020D0005241C3088B4201D3CB00C01A524183083E
:1020E0008B4201D38B00C01A524143088B4201D36B
:1020F0004B00C01A5241411A524110007047CA0F9A
:1021000000D04942031000D34042534000229C4675
:1021100003098B422DD3030A8B4212D38901FC227F
:1021200012BA030A8B420CD3890192118B4208D355
:10213000890192118B4204D3890137D0921100E0BA
:102140008909C3098B4201D3CB01C01A52418309CB
:102150008B4201D38B01C01A524143098B4201D3F8
:102160004B01C01A524103098B4201D30B01C01A23
:102170005241C3088B4201D3CB00C01A524183089D
:102180008B4201D38B00C01A5241D9D243088B42F3
:1021900001D34B00C01A5241411A00D201465241AC
:1021A000104663465B1000D34042704763465B10A5
:1021B00000D3404201B50021004201D0C943084686
:1021C000C046C04602BDA3AC0000000000000000F5
:1021D000000000000000000000000058380000006F
:1021E000000000000000000000A1A30000000000AB
:1021F00000000000000000000000000000001824A3
:10220000241800000000000000000000BACC00000C
:102210004044444444C4FCC2424243424000002083
:10222000201008040300FF0003040810202000C44D
:10223000B00000FE0222DA0600E222322E2222E262
:10224000020000FF0810080700FF4242424242FF1E
:102250000000BFC6002424A4FEA3220022CC00005C
:10226000FF00000000080601FF000104040404044C
:10227000FF02020200BCBC00101010FF1090088882
:102280008888FF88888808000444827F0180804015
:10229000432C102846818000D2D700000000007F28
:1022A000C949494949497F00000000000804422308
:1022B000128E42320E4282423E0000C6BD00000233
:1022C0000212620202FE0202423202020000010118
:1022D0000101010101FF0101010101010100CCA87F
:1022E000000040E050484443404040485060C00037
:1022F00000000000FE42424242424242FE00000014
:1023000000C4E300008060F8074020180F08C808E8
:1023100008281800010000FF00100C0340807F0017
:1023200001061800BAC3001010F01F10F0008082E0
:1023300082E2928A868000402215081661000040E1
:10234000807F0000000000CAC000202020FE202066
:10235000FF202020FF20202020000000007F4040A0
:1023600047444444474040400000BDE700000000AF
:10237000FE929292FE929292FE00000000080804E3
:1023800084621E010001FE020404080800B5E70093
:102390000000C0404040F8F8404040C0C00000008D
:1023A00000003F222222FFFF2222223F3F00800026
:1023B000D7D30000001010101010109090D0703083
:1023C00010000000040404040404FFFF04040404D7
:1023D000040400D0C500000080E038282020203808
:1023E000383020202020020703FF0000E5E52525E6
:1023F000252525E50000CFA20000000080C0406038
:1024000070404040C0C0000000000080DF1FF51594
:10241000355595159FDF800000B9A40000002020ED
:10242000202020E0E02020202020000000000000EC
:10243000000000FFFF00000000000000B3CC00001F
:102440002020F0F03010F0F090909090F00000001C
:102450006139FFFF0D19242424FCFC24240400C14D
:10246000F50000808080B0E080808000C00000F037
:10247000F00000000284D8707FC780003F0000FF9A
:10248000FF00D1D200000070784040407878404092
:10249000407878000000C24262FAFE161212121250
:1024A00012F2E20202C1D500202020E020A080F834
:1024B000808080F8F880800080C2C27F623A1EFF70
:1024C00046743CFFFF386040D1A70000008090B008
:1024D000E08898F080C0F0988080000023232024BA
:1024E0002424E4F43C2C2420232300BAC50000005B
:1024F0000010F0101010101010F0F0000000000498
:102500000404151D1D1515151595F5040404D7A80B
:1025100000000020202020E0F8282020202020009B
:102520000000020202D29E9F1312D27232120202E5
:1025300002D2B500000080800000F0F000F0000042
:1025400000800000000001071E10FFFF00FF301C8C
:102550000F030000D0D500000000F0700000C0F0B4
:1025600080F0F08080800000113FE7F1FF850F09C7
:1025700008FFFF08080800C3FB000000000080C03F
:102580007050404040C0C04000000020233111F98D
:102590000B0E0C0A0909F8F80000B0E0000020E07A
:1025A000E020208000F02020E0E02020200404FF34
:1025B000FFC4448FF03F0404FFFF040400BCB600D6
:1025C0000080C0701080A020E06020A0E02000000B
:1025D00000B399DFD351C0781F9CF2E3BE8E000098
:1025E000D5BC0000000000000000F08080808080EA
:1025F0008080000000F8F80808080F080808F8F8BC
:10260000000000BFD5000080C040404050706040D6
:10261000404040C0C0000001091C161213F0F01326
:102620001316140D0100B1C8000000E0E000000026
:1026300000F0F00000008000000000FFFF8282C276
:1026400000FFFF060301018000D7AA00008080F090
:10265000F080804040C0F050404000000088CECB69
:10266000FF48682A1ADF939272320200CBD9000029
:102670002060C00040404040F0F040404040000238
:102680000282FEFC8ECF6939FFFF69C9CF0000B717
:10269000BD00004040404040C05850704040404065
:1026A000400000000080C0781F02020202FAFE0013
:1026B0000000CFF20000008080C0F0908080808019
:1026C00080808000000000FF00007C4444447C7C4B
:1026D00000FFFF0000D5FD0000202020202020204A
:1026E000E02020202020200000000000FF0000004B
:1026F000FF04040404040000B7B400000000E0F08C
:1027000030303030303030303000000000C0FF0F4B
:10271000069EB2E262F29E86000000B5B50000801F
:1027200080F8F880B0E0C000F880C0701000003081
:102730001CFFFF0C0A222222232222FEFE00CEBB17
:1027400000000080E0F880808098B0A080808080C9
:1027500000000603FFFF00041E784080FC1F0000FD
:1027600000000000FF010101310909090989710117
:10277000010101FFFF8080808080809681808080C1
:10278000808080FF0000000000000000002F00009B
:1027900000000700070000147F147F1400242A7F24
:1027A0002A120023130864620036495522500000A3
:1027B0000007000000001C224100000041221C0014
:1027C0000014083E08140008083E0808000000A095
:1027D0006000000808080808000060600000002091
:1027E00010080402003E5149453E0000427F40006F
:1027F000004261514946002141454B3100181412F5
:102800007F10002745454539003C4A4949300001C1
:102810007109050300364949493600064949291E10
:102820000000363600000000563600000008142272
:102830004100001414141414000041221408000272
:1028400001510906003E4955592E007C1211127C97
:10285000007F49494936003E41414122007F4141C4
:10286000221C007F49494941007F09090901003EB6
:102870004149497A007F0808087F0000417F4100F4
:10288000002040413F01007F08142241007F40406A
:102890004040007F020C027F007F0408107F003E52
:1028A0004141413E007F09090906003E4151215E38
:1028B000007F091929460046494949310001017F35
:1028C0000101003F4040403F001F2040201F003FCB
:1028D0004038403F0063140814630007087008077D
:1028E00000615149454300007F4141000002040856
:1028F0001020000041417F0000040201020400405A
:10290000404040400000010204000020545454782C
:10291000007F48444438003844444420003844444C
:10292000487F00385454541800087E0901020018EA
:10293000A4A4A47C007F080404780000447D400027
:10294000004080847D00007F102844000000417F0B
:102950004000007C04180478007C080404780038E7
:102960004444443800FC242424180018242418FC6F
:10297000007C0804040800485454542000043F44D8
:102980004020003C4040207C001C2040201C003C9B
:102990004030403C004428102844001CA0A0A07CEB
:1029A000004464544C440000087F41000000007F54
:1029B00000000000417F0800000804081008000023
:1029C0000000000000000000000000000000000007
:1029D00000F8000000000000003330000000001686
:1029E0000E00160E0000000000000000000040C0B5
:1029F0007840C0784000043F04043F0404000070A5
:102A000088FC08300000001820FF211E0000F0089C
:102A1000F000E018000000211C031E211E0000F041
:102A20000888700000001E212324192721100000AF
:102A300000160E0000000000000000000000000072
:102A400000E0180402000000000718204000000207
:102A50000418E0000000004020180700000040407B
:102A600080F0804040000202010F010202000000DD
:102A700000F0000000000101011F01010100000041
:102A800000000000000000B0700000000000000026
:102A9000000000000000000101010101010100002F
:102AA00000000000000000303000000000000000C6
:102AB000000080601804006018060100000000E0BB
:102AC00010080810E000000F102020100F00001068
:102AD00010F8000000000020203F202000000070BF
:102AE00008080888700000302824222130000030B7
:102AF0000888884830000018202020110E000000AF
:102B0000C02010F8000000070424243F240000F82F
:102B10000888880808000019212020110E0000E014
:102B2000108888180000000F112020110E000038B6
:102B30000808C83808000000003F000000000070CE
:102B4000880808887000001C222121221C0000E057
:102B500010080810E0000000312222110F000000D0
:102B600000C0C00000000000003030000000000085
:102B700000C0C0000000000080B070000000000035
:102B8000804020100800000102040810200040408E
:102B900040404040400004040404040404000008D1
:102BA0001020408000000020100804020100007086
:102BB00048080808F0000000003036010000C0306E
:102BC000C828E810E0000718272423140B00000091
:102BD000C038E0000000203C23020227382008F81B
:102BE000888888700000203F202020110E00C0300F
:102BF000080808083800071820202010080008F8E6
:102C000008080810E000203F202020100F0008F8DE
:102C10008888E8081000203F20202320180008F8AA
:102C20008888E8081000203F200003000000C03022
:102C300008080838000007182020221E020008F8A3
:102C400008000008F808203F210101213F2000086A
:102C500008F8080800000020203F202000000000A5
:102C60000808F8080800C08080807F00000008F88D
:102C700088C028180800203F20012638200008F8C6
:102C8000080000000000203F20202020300008F82D
:102C9000F800F8F80800203F003F003F200008F847
:102CA00030C00008F808203F200007183F00E0105F
:102CB00008080810E0000F10202020100F0008F86E
:102CC00008080808F000203F210101010000E01081
:102CD00008080810E0000F18242438504F0008F8A6
:102CE000888888887000203F2000030C3020007006
:102CF0008808080838000038202121221C00180804
:102D000008F8080818000000203F2000000008F81C
:102D100008000008F808001F202020201F00087865
:102D2000880000C83808000007380E010000F808C5
:102D300000F80008F800033C0700073C03000818EF
:102D400068808068180820302C03032C3020083855
:102D5000C800C83808000000203F2000000010080C
:102D60000808C83808002038262120201800000054
:102D700000FE020202000000007F40404000000C04
:102D800030C000000000000000010638C000000252
:102D90000202FE000000004040407F0000000020D2
:102DA00010080408102000000000000000000000CF
:102DB0000000000000008080808080808080000211
:102DC00004080000000000000000000000000000F7
:102DD0008080808000000019242222223F2008F8F1
:102DE000008080000000003F112020110E00000034
:102DF000008080800000000E1120202011000000C3
:102E000000808088F800000E112020103F20000074
:102E1000808080800000001F222222221300008078
:102E200080F0888888180020203F202000000000C3
:102E3000808080808000006B94949493600008F8F8
:102E4000008080800000203F210000203F20008083
:102E50009898000000000020203F20200000000083
:102E600000809898000000C08080807F000008F8F3
:102E7000000080808000203F24022D3020000008C8
:102E800008F8000000000020203F20200000808083
:102E9000808080808000203F20003F20003F008015
:102EA00080008080000000203F2100203F200000A3
:102EB000808080800000001F202020201F00808054
:102EC00000808000000080FFA12020110E00000083
:102ED000008080808000000E112020A0FF80808074
:102EE00080008080800020203F2120000100000021
:102EF00080808080800000332424242419000080F6
:102F000080E0808000000000001F20200000808002
:102F1000000000808000001F202020103F208080C3
:102F200080000080808000010E3008060100808053
:102F30000080008080800F300C030C300F00008078
:102F40008000808080000020312E0E3120008080A3
:102F500080000080808080818E70180601000080D3
:102F60008080808080000021302C222130000000F1
:102F70000000807C020200000000003F4040000092
:102F80000000FF00000000000000FF000000000241
:102F9000027C800000000040403F000000000080F4
:102FA000404080000080000000000001010000009F
:102FB00000004000002000000000200000800020F1
:102FC0000000800020000080002000008000200021
:102FD0000080002000008000200000800020000011
:102FE0008000200000800020000040000000000061
:102FF0000004004008000110008108004000044067
:1030000000044000040020000400400400400400CC
:10301000200004004004004004002000040040049C
:103020000040040020000400002400001000000004
:10303000004200000800E1F0B8F83C2C1C3C38F8D5
:10304000F4E00002002001002004008004002002BF
:1030500000800210000084E0E07230383A183C2C06
:103060001C3C385C78B8F1F0E0C2001000000000B1
:103070000010008200000F1F6D7FDED878F8CCCFE3
:103080008701000000007AF8B8FCF0C080C0D2C010
:10309000E0E480000220000000E0F87CFF9F0000D8
:1030A0000040000080FBFF5EF37F0E000000000088
:1030B00000F8FCDEBFFF030000000001C7FF79EF4E
:1030C000DFFF30000000FCFF77EE0D0301F2FFDBB5
:1030D000EE1F0180C0E060D0FFBFEDFF13000006CF
:1030E0000606870703070103800000400000000078
:1030F0000000070F090F1F1B0E1F0B0F0F03070602
:103100000100800000001F1F1B1F000000070F1E92
:103110001B160E070301001E1F1B0E0F00000000F0
:10312000240000100001880000084000000000009A
:103130000020020040080000200400004800012098
:1031400000040020000220000440000210000004DF
:103150004000040020020000900200001100002145
:10316000000800410000480000100280000000003C
:10317000001000024000088001080080100200409A
:103180000009800002200002400008400100801277
:10319000000010010020040040000881000024000D
:1031A00001100000042000001200001000000800C0
:1031B00008076300E803000020000100080763001F
:1031C000E80300002000010008076300020000007F
:1031D0003F9C000001000000000000000000000013
:1031E000F03100000000202010060000080100005F
:04000005000000C136
:00000001FF
