:020000040000FA
:10000000100620204D0100005101000053010000A6
:1000100000000000000000000000000000000000E0
:10002000000000000000000000000000550100007A
:100030000000000000000000570100008D170000C4
:100040005B0100005B0100005B0100005B01000040
:100050005B0100005B0100005B0100005B01000030
:10006000000000005B0100005B01000000000000D8
:10007000000000005B0100005B0100005B0100006C
:100080009D1700005B0100005B0100005B010000A8
:100090005B0100005B0100000000000000000000A8
:1000A0005B0100005B010000000000000000000098
:1000B0005B010000000000005B0100005B0100002C
:1000C00000F002F800F032F80CA030C8083824180C
:1000D0002D18671EA246AB4654465D46AC4201D180
:1000E00000F024F87E460F3EB6460FCC0126334280
:1000F00000D0FB1A3343A246AB4618474C19000008
:100100005C190000000000000023002400250026E8
:10011000103A01D378C1FBD8520700D330C100D5C3
:100120000B6070471FB51FBD10B510BD00F04CF837
:100130001146FFF7F7FF01F055FB00F064F803B438
:10014000FFF7F2FF03BC00F067F800000648004725
:10015000FEE7FEE7FEE7FEE7FEE7FEE703480449A9
:10016000024A044B70470000C10000001005202027
:10017000100620201005202001E004C0091F0429DA
:10018000FBD28B0701D50280801CC90700D002700A
:10019000704700290BD0C30702D00270401C491ED3
:1001A000022904D3830702D50280801C891EE3E75D
:1001B0000022EEE70022DFE770477047704700003B
:1001C00000487047000020207546FFF7F9FFAE4653
:1001D000050069465346C008C000854618B020B5E2
:1001E000FFF7BCFF60BCB64600260027C0C5C0C5EF
:1001F000C0C5C0C5C0C5C0C5C0C5C0C5403D490813
:1002000049008D46704710B50446C046C04620469A
:10021000FFF795FF10BD000001491820ABBEFEE7B7
:10022000260002007047811E091F00BFFCD27047E4
:10023000F0B582B0002A31D091235B01C3180320AE
:10024000801A00900220C043801A019056420F206D
:1002500007020020DC693C4221D00C5C1C60019C40
:100260002418241D1ED0DC693C421DD00C18657872
:100270001D603518AD1C19D0DD693D4218D0A57838
:100280001D60009D2D1815D0DD693D4214D0E47825
:100290001C60001D3418DDD1104600E0002080B243
:1002A00002B0F0BD1046FAE7401CF8E71046F6E74A
:1002B000801CF4E71046F2E7C01CF0E770B50A783E
:1002C0000C231A400124240305196E689E43B218BA
:1002D0006A60497807221140035993435918015124
:1002E00070BD0000F0B57D4A82183B4BC3180879F9
:1002F0004E793A4D7B4C002E23D0202804D0052681
:10030000F601002803D003E0354E002800D18826EE
:10031000576F2F4037435767976F2F403743976783
:10032000566B26405663966B2640966300265665AC
:1003300096658F26F6435F6837405F609F68374059
:100340009F608E79096820280BD0002819D1491E9A
:100350005160D76E2F4088210F43D76617467037FC
:1003600019E0491E5160D16E29401D4F3943D166B5
:10037000116F29403943116701214907194D17466B
:1003800009E049085160D76E2F400521C9010F438C
:10039000D766174670373C682C400C433C60D16AE6
:1003A000504C2140D162116B214011630021D16476
:1003B00011658F21C943D46F0C40D4671C680C4071
:1003C0001C600643BD2030401168074B0B40C0182D
:1003D000801C1060F0BDC0468418000024493E0017
:1003E00001040000FFFFFFCF4000FFCFB0B53B4A44
:1003F00080184A6842600A78222A57D8930001A4DC
:10040000E3589F46A3040000AD040000A3040000CD
:10041000AD040000AD040000AD040000AD04000018
:10042000AD040000AD040000AD040000AD04000008
:10043000AD040000AD040000AD040000AD040000F8
:10044000AD04000091040000AD0400009104000020
:10045000AD040000AD040000AD040000AD040000D8
:10046000AD040000AD040000AD040000AD040000C8
:10047000AD040000AD040000AD040000AD040000B8
:10048000AD04000091040000AD04000091040000E0
:1004900003231B0704689C4301235B07E3180360E5
:1004A00004E003231B0704689C4304600B69C360DA
:1004B000CB680B4C1C40C36A0A4D1D402B19C3620C
:1004C0000368094C1C400460097A11433F22114023
:1004D0000368934359180160B0BDC046041800007A
:1004E000777702008888FDFF7F00FFFF10B50723A4
:1004F0009B04194092008018024A84589C4361185A
:10050000815010BD3018000010B5029CA4000019E5
:1005100011431943014A815010BDC04650180000D4
:1005200092008018014A81507047C04610180000A0
:1005300010B50122120383180C789C604B7883500D
:100540008978014A815010BD0C11000010B528486F
:100550000168C90001D4012103E00068400C0221B8
:10056000814324480278032A0ED8C0467A4412797F
:1005700052009744010C1828002926D0012101704F
:100580001D480021016010BD002101701DE00029FF
:100590001CD019490A68521C0A600968142914D32E
:1005A0000221017010BD144A1368002913D0591C90
:1005B00011601168C9087D2907D3104902220A7009
:1005C0000321017010BD002900D010BD0021017071
:1005D0000948016010BD9B0800217D2B01D30B460B
:1005E00000E00123054C23700170116010BDC0466E
:1005F00080130A400105202004052020000520204A
:1006000080B5012081020248FFF7D4FD80BDC046BD
:1006100060002020F0B587B006A9AE204870002009
:1006200000900870E9480222FFF702FEE84F3946C1
:1006300008390868E74A1040783005910860391F8A
:100640000868E54A1040E54A801804910860386857
:10065000400612D5386840060FD5386840060CD5DC
:1006600038684006F3D408E03868800608D4386853
:10067000800605D43868800602D438688006F3D531
:1006800006A9D5204870009808700222CF48FFF7CD
:10069000CFFD05990868CF4A104078220392104395
:1006A000086004990868CC4A1040CC4A104308609E
:1006B0003868400612D5386840060FD538684006BD
:1006C0000CD538684006F3D408E03868800608D4B2
:1006D0003868800605D43868800602D438688006F9
:1006E000F3D506A980204870009808700222B74808
:1006F000FFF79EFD05990868B64A1040039A10431B
:10070000086004990868B44A1040B44A104308606D
:100710003868400612D5386840060FD5386840065C
:100720000CD538684006F3D408E03868800608D451
:100730003868800605D43868800602D43868800698
:10074000F3D506A9A82048700098087002229F4897
:10075000FFF76EFD059908689E4A1040039A104302
:100760000860049908689C4A10409C4A104308603D
:100770003868400612D5386840060FD538684006FC
:100780000CD538684006F3D408E03868800608D4F1
:100790003868800605D43868800602D43868800638
:1007A000F3D506A93F2048700098087002228748B8
:1007B000FFF73EFD05990868864A1040039A1043EA
:1007C000086004990868844A1040844A104308600D
:1007D0003868400612D5386840060FD5386840069C
:1007E0000CD538684006F3D408E03868800608D491
:1007F0003868800605D43868800602D438688006D8
:10080000F3D506A9D32048700098087002226F48DB
:10081000FFF70EFD059908686E4A1040039A1043D1
:100820000860049908686C4A10406C4A10430860DC
:100830003868400612D5386840060FD5386840063B
:100840000CD538684006F3D408E03868800608D430
:100850003868800605D43868800602D43868800677
:10086000F3D506A900984870087002225748FFF790
:10087000DFFC05990868574A1040039A1043086046
:1008800004990868544A1040544A10430860386874
:10089000400612D5386840060FD5386840060CD59A
:1008A00038684006F3D408E03868800608D4386811
:1008B000800605D43868800602D438688006F3D5EF
:1008C00006A94020029048700098087002223F4814
:1008D000FFF7AEFC059908683E4A1040039A1043A2
:1008E0000860049908683C4A10403C4A104308607C
:1008F0003868400612D5386840060FD5386840067B
:100900000CD538684006F3D408E03868800608D46F
:100910003868800605D43868800602D438688006B6
:10092000F3D506A9A1204870009808700222274834
:10093000FFF77EFC05990868264A1040039A104389
:10094000086004990868244A1040244A104308604B
:100950003868400612D5386840060FD5386840061A
:100960000CD538684006F3D408E03868800608D40F
:100970003868800605D43868800602D43868800656
:10098000F3D506A9C82048700098087002220F48C5
:10099000FFF74EFC059908680E4A1040039A104371
:1009A0000860049908680C4A10400C4A104308601B
:1009B000386840061DD5386840061AD538684006A4
:1009C00017D538684006F3D413E0C04600000F4046
:1009D00018120F4000F8FFFFF8FF00F007000200B8
:1009E0003868800608D43868800605D438688006E0
:1009F00002D438688006F3D506A9DA20487000983A
:100A000008700222E648FFF713FC05990868E54ADA
:100A10001040039A1043086004990868E24A1040A5
:100A2000E24A104308603868400612D5386840062C
:100A30000FD5386840060CD538684006F3D408E076
:100A40003868800608D43868800605D4386880067F
:100A500002D438688006F3D506A9122048700098A1
:100A600008700222CE48FFF7E3FB05990868CD4ADB
:100A70001040039A1043086004990868CA4A10405D
:100A8000CA4A104308603868400612D538684006E4
:100A90000FD5386840060CD538684006F3D408E016
:100AA0003868800608D43868800605D4386880061F
:100AB00002D438688006F3D506A9812048700098D2
:100AC00008700222B648FFF7B3FB05990868B54ADB
:100AD0001040039A1043086004990868B24A104015
:100AE000B24A104308603868400612D5386840069C
:100AF0000FD5386840060CD538684006F3D408E0B6
:100B00003868800608D43868800605D438688006BE
:100B100002D438688006F3D506A9CF204870009823
:100B2000087002229E48FFF783FB059908689D4ADA
:100B30001040039A10430860049908689A4A1040CC
:100B40009A4A104308603868400612D53868400653
:100B50000FD5386840060CD538684006F3D408E055
:100B60003868800608D43868800605D4386880065E
:100B700002D438688006F3D506A9D92048700098B9
:100B8000087002228648FFF753FB05990868854ADA
:100B90001040039A1043086004990868FC4A10400A
:100BA000FC4A104308603868400612D53868400691
:100BB0000FD5386840060CD538684006F3D408E0F5
:100BC0003868800608D43868800605D438688006FE
:100BD00002D438688006F3D506A9F1204870009841
:100BE00008700222E848FFF723FB05990868E74AE6
:100BF0001040039A1043086004990868E44A1040C2
:100C0000E44A104308603868400612D53868400648
:100C10000FD5386840060CD538684006F3D408E094
:100C20003868800608D43868800605D4386880069D
:100C300002D438688006F3D506A9DB2048700098F6
:100C400008700222D048FFF7F3FA05990868CF4AE6
:100C50001040039A1043086004990868CC4A104079
:100C6000CC4A104308603868400612D53868400600
:100C70000FD5386840060CD538684006F3D408E034
:100C80003868800608D43868800605D4386880063D
:100C900002D438688006F3D506A930204870009841
:100CA00008700222B848FFF7C3FA05990868B74AE6
:100CB0001040039A1043086004990868B44A104031
:100CC000B44A104308603868400612D538684006B8
:100CD0000FD5386840060CD538684006F3D408E0D4
:100CE0003868800608D43868800605D438688006DD
:100CF00002D438688006F3D506A9A420487000986D
:100D000008700222F148FFF793FA05990868F14A42
:100D10001040039A1043086004990868EE4A104096
:100D2000EE4A104308603868400612D5386840061D
:100D30000FD5386840060CD538684006F3D408E073
:100D40003868800608D43868800605D4386880067C
:100D500002D438688006F3D506A9A620487000980A
:100D600008700222D948FFF763FA05990868D94A42
:100D70001040039A1043086004990868D64A10404E
:100D8000D64A10430860386840061AD538684006CD
:100D900017D53868400614D538684006F3D410E0FB
:100DA00000000F4000F8FFFFF8FF00F0070002000E
:100DB0003868800608D43868800605D4386880060C
:100DC00002D438688006F3D506A98D2048700098B3
:100DD00008700222BD48FFF72BFA05990868BD4A42
:100DE0001040039A1043086004990868BA4A1040FA
:100DF000BA4A104308603868400612D53868400681
:100E00000FD5386840060CD538684006F3D408E0A2
:100E10003868800608D43868800605D438688006AB
:100E200002D438688006F3D506A9142048700098CB
:100E300008700222A548FFF7FBF905990868A54A42
:100E40001040039A1043086004990868A24A1040B1
:100E5000A24A104308603868400612D53868400638
:100E60000FD5386840060CD538684006F3D408E042
:100E70003868800608D43868800605D4386880064B
:100E800002D438688006F3D506A9AF2048700098D0
:100E9000087002228D48FFF7CBF9059908688D4A42
:100EA0001040039A10430860049908688A4A104069
:100EB0008A4A104308603868400612D538684006F0
:100EC0000FD5386840060CD538684006F3D408E0E2
:100ED0003868800608D43868800605D438688006EB
:100EE00002D438688006F3D57D20800000F064FCD1
:100EF000012081022848FFF75DF9009D03E0019D74
:100F00006D1C082D3ED0E8B2009C214600F046F84A
:100F10000195E80120490E1803E0641CAD46802CC1
:100F2000EDD06D4606A902980870305D4870022227
:100F30006648FFF77DF905990868664A1040039AEC
:100F40001043086004990868634A1040634A1043DC
:100F500008603868400608D53868400605D5386806
:100F6000400602D538684006F3D438688006D4D4E9
:100F700038688006D1D438688006CED438688006B8
:100F8000F3D5CAE707B0F0BD00000F4000F8FFFF3F
:100F9000F8FF00F00700020060002020F0B585B0E7
:100FA0000C4602A9002201920A70B02202434A7044
:100FB00046480222FFF73CF9454E3546083D286871
:100FC0004449084078302860371F38684249084053
:100FD0004249401838603068400612D530684006F3
:100FE0000FD5306840060CD530684006F3D408E0D1
:100FF0003068800608D43068800605D430688006E2
:1010000002D430688006F3D503A9019808700094D3
:1010100020091030487002222C48FFF709F928688F
:101020002C49084078242043286038682A49084021
:101030002A49084338603068400612D530684006B7
:101040000FD5306840060CD530684006F3D408E070
:101050003068800608D43068800605D43068800681
:1010600002D430688006F3D50F20009A024004A90C
:101070004A70019808700222FC48FFF7D9F82868E6
:10108000FB490840204328603868FA490840FA497B
:10109000084338603068400612D5306840060FD5E6
:1010A000306840060CD530684006F3D408E030685C
:1010B000800608D43068800605D43068800602D4E3
:1010C00030688006F3D505B0F0BDC04600000F4083
:1010D00018120F4000F8FFFFF8FF00F007000200B1
:1010E000F0B590B0079208910D900C93002B32D080
:1010F0000C98089BC0180E9007980D9942180F93F2
:1011000006E00F98401C0F9000B20E99814222DD3C
:1011100007980028F5D007200F9B18400121814037
:10112000CD431EB2700F181800B2C7100D980146BB
:1011300003E0401C01B28A42E3DD83B27F2BF8D882
:10114000002EF6D43F2EF4DCFB01C74CE3185C5CA8
:101150002C405C54EDE7089C600F201807210246E4
:101160008A43A11A002C00D50831159A03920AB2BD
:1011700008239A1A0B9289B20A91BB4A0D99511809
:101180000091FC21079A114009910321114005911A
:10119000C010E113401802900C98401E410F4018F7
:1011A000C0100490501E01900025089506E06D1CAB
:1011B000E9B204980891884200DA04E1079800280F
:1011C000F5D0029908980E18771C019803280E96FE
:1011D000069574D2002205980028069DE7D007984E
:1011E0000899414308910D9810187F281BD8072EA5
:1011F0000BD808995118039B595C0A9B9940F3013D
:10120000994CE3181C5C0C431C54072F0BD808990D
:101210005118039B595C0B9BD940FB01924CE3187E
:101220001C5C0C431C5405980128C0D0511C0D981F
:1012300008187F281ED8072E0ED8089BCB18039CB1
:10124000E35C0A9CA340F4012E46874D2C19255CD3
:101250001D43255435460E9E072F0BD8089BC918F1
:10126000039B595C0B9BD940FB017F4CE3181C5C32
:101270000C431C540598022899D0911C0D9808180D
:101280007F2894D8072E0BD8089A8A18039B9A5C5B
:101290000A9B9A40F301744CE3181C5C14431C54E1
:1012A000072F84D8089A8918039A515C0B9AD14069
:1012B000FA016D4B9A18135C0B43135477E7E8B2AD
:1012C0000A1807994843039908180F90D00100990C
:1012D0000D1800220C9704E0121D0998904200D1CD
:1012E00079E70D9880187F2817D8072E08D8AF5CAB
:1012F0000F998E5C0A998E403E430C9FAE540E9E11
:10130000072F0AD80F998E5C0B9BDE40AF18802305
:10131000FC5C34430E9EFC540C9F431C7F2B19D85D
:10132000072E09D80F998B185B780A998B40AC1857
:1013300066781E4366700E9E072F0BD8AB1881246B
:101340001E5D0F998F187F780B99CF4037430E9E03
:101350001F550C9F831C7F2B19D8072E09D80F9976
:101360008B189B780A998B40AC18A6781E43A67000
:101370000E9E072F0BD8AB1882241E5D0F998F1875
:10138000BF780B99CF4037430E9E1F550C9FC01C52
:101390007F28A1D8072E08D80F988018C0780A99FE
:1013A0008840AB18DC780443DC70072F94D8A81869
:1013B0008323C45C0F998E18F6780B99CE40264390
:1013C000C6540E9E88E710B0F0BDC046F0B583B09D
:1013D0000020244E0090054603E0019D6D1C082D61
:1013E0003ED0E8B2009C2146FFF7D8FD0195E80108
:1013F0001D490D1803E0641CBD46802CEDD06F46DE
:1014000002A940200870285D487002225348FEF768
:101410000FFF304608380168154A114078310160E5
:10142000301F0168134A1140134A8918016030685F
:10143000400608D53068400605D53068400602D51C
:1014400030684006F3D430688006D4D43068800613
:10145000D1D430688006CED430688006F3D5CAE790
:1014600003B0F0BD18120F406000202000000F40B4
:1014700000F8FFFFF8FF00F00700020070B51F4AF8
:10148000852494640121CB061D4803601D4BDC6755
:10149000CD03056015461C3D2C600C0404601A4CFD
:1014A000A51C1D601E681E605D605D685D604D0668
:1014B0001E682E431E605E682E435E609C609D68C1
:1014C0009D6014601368136081239362D362136478
:1014D00053640E4A136810241C43146089040C4A98
:1014E000136A0B43136213680B43136001463039D0
:1014F0001B2292050A60026070BDC046A080424077
:10150000D0320A400480424081000C00A0130A40FF
:1015100028100A4080B511481149FEF7CFFE03207C
:101520004102104802680A43026001210A0203686E
:10153000134303600022426107224262836B93439C
:1015400083631202836B93438363826A042313438E
:101550008362826A0A43826280BDC04600000F40F7
:10156000141A000000120F4070B582B0144C1549D7
:101570002046FEF7DDFF14492046FEF7B3FE134870
:101580000168354A0A404921C90151180160012505
:10159000009500262046314632463346FEF7B4FF1A
:1015A000204631462A46FEF7A1FF204631462A460C
:1015B000FEF7B6FF064885600221016002B070BDEB
:1015C00000808640161A00001C1A0000049886400D
:1015D0000091864070B582B01B4C1C492046FEF736
:1015E000A7FF1B492046FEF77DFE1A4801681A4AEC
:1015F0000A40026000250095204629462A462B46CF
:10160000FEF782FF204629462A46FEF76FFF204656
:1016100029462A46FEF784FF0126009620462946E1
:101620002A462B46FEF770FF204629463246FEF733
:101630005DFF204629463246FEF772FF0748866066
:101640000321016002B070BD00000940241A0000AF
:10165000281A0000041809407F00FFFF001109400C
:101660000D48002101600320C1430C48021F13688C
:101670000B401360416801229143416011024268AE
:101680008A434260016830229143016001680F2261
:10169000914301607047C04608030B4004010B40B2
:1016A000084809494160FF210906084A13688B432D
:1016B0000321890759181160002181600721016009
:1016C0007047C04610E000E0FF7C000020ED00E025
:1016D00010B5084C08492046FEF72AFF0749204666
:1016E000FEF784FE064801680122114301600548A7
:1016F000026010BD00400840301A0000341A00009B
:10170000285008400851084080B500F015F8FFF750
:10171000B5FEFFF7A5FFFFF727FFFFF75BFFFFF71A
:10172000D7FFFFF7F7FEFFF7BBFF9C200149002220
:101730000A5480BD6004202070B50C480C494160FB
:101740000C4A51600C4B59600C4C61600C4D696047
:101750000C4E71600C4901601160196021602960B4
:1017600031601020FEF75FFD70BDC04600080A40E2
:10177000030000B100280A400088864000080940A4
:101780000048084000080F400100002680B51448BA
:101790000168491C0160FEF7D9FE80BD044800685D
:1017A000C0B2012802D10348012101707047C04630
:1017B000205008400C05202009490A680B689B1A34
:1017C00083420BD20B689B1A834207D20B689B1A89
:1017D000834203D20B689B1A8342EFD37047C04603
:1017E0000805202082B0FFF78FFFFEF713FFFEF7FA
:1017F00007FF074800902020002140221346FFF7F2
:101800006FFCFFF7E3FD7D208000FFF7D5FFFAE7CF
:10181000141800000000000040000020000000003C
:1018200020000080002000008000200000800020B8
:1018300000008000200000800020000080002000C8
:1018400000800020000080002000008000200000B8
:10185000400000000000000400400800011000816A
:101860000800400004400004400004002000040080
:101870004004004004002000040040040040040034
:101880002000040040040040040020000400002464
:10189000000010000000004200000800E1F0B8F86D
:1018A0003C2C1C3C38F8F4E000020020010020042D
:1018B00000800400200200800210000084E0E0723A
:1018C00030383A183C2C1C3C385C78B8F1F0E0C257
:1018D0000010000000000010008200000F1F6D7F4C
:1018E000DED878F8CCCF8701000000007AF8B8FC89
:1018F000F0C080C0D2C0E0E480000220000000E020
:10190000F87CFF9F00000040000080FBFF5EF37F3B
:101910000E000000000000F8FCDEBFFF0300000026
:101920000001C7FF79EFDFFF30000000FCFF77EE1A
:101930000D0301F2FFDBEE1F0180C0E060D0FFBFAE
:10194000EDFF13000006060687070307010380006A
:101950000040000000000000070F090F1F1B0E1FB2
:101960000B0F0F0307060100800000001F1F1B1F45
:10197000000000070F1E1B160E070301001E1F1B91
:101980000E0F000000002400001000018800000875
:101990004000000000000020020040080000200479
:1019A0000000480001200004002000022000044044
:1019B0000002100000044000040020020000900219
:1019C0000000110000210008004100004800001044
:1019D00002800000000000100002400008800108A2
:1019E0000080100200400009800002200002400038
:1019F0000840010080120000100100200400400097
:101A000008810000240001100000042000001200E2
:101A1000001000000800080763000000E803000051
:101A20002000010008076300E80300002000010017
:101A300008076300020000003F9C00000100000056
:101A40000000000000000000581A000000002020E4
:081A500010060000080100006F
:04000005000000C136
:00000001FF
